:020000041800E2
:10D0000008A055AA12082220FF21513101803121A8
:10D01000090141808180C1807721C9000181972168
:10D02000C9004181AF21C900818159210901C18114
:10D03000692109010182DF21C900418202498182FF
:10D040000249C18270470000F80B0000F80E000092
:10D0500072B6BFF34F8F04490248C860BFF34F8FC9
:10D06000FEE700000400FA0500ED00E030B5D31C37
:10D070009C0883000A4D5118A40089085B19890097
:10D08000091B400040199C6101849869418099699D
:10D09000044808809969002048609969886030BD1B
:10D0A000509000205AA50000C088884201D101207C
:10D0B000704700207047082807D2EFF3108272B63D
:10D0C0008000024B195082F3108870477490002042
:10D0D0007FB505460E46EFF3108472B602A80DF038
:10D0E00046FB84F310880298039900900191281A56
:10D0F000000101210009C906884205D20098A84212
:10D1000005D10198864202D8012004B070BD0020EC
:10D11000FBE730B5C368826888680125141A2401CA
:10D12000C9682409ED06AC4203D2904203D18B4278
:10D1300001D8012030BD002030BD0A0C838889B29F
:10D14000934204D1C088884201D101207047002059
:10D1500070470000072803D2024A8000801841600F
:10D1600070470000949000200CB5002807D00DA156
:10D1700006C96844203801920091C07F0CBDFF2091
:10D18000F5300CBD0CB5014606A005C80192009013
:10D1900000206A46135C8B4203D3401CC0B20728B0
:10D1A000F8D30CBDFA96644B321E140070B50E46CF
:10D1B0001C46154601210DF063F846608560446108
:10D1C00070BD70B50C460646014615464F480CF03A
:10D1D00099FF4F4A3561F460137820462946002BA9
:10D1E00003D1012313700DF070FB70BDF8B51C4620
:10D1F000069B002A0E46054622460DD00021382007
:10D20000FFF7D4FF434F0446002D0CD010222046D8
:10D2100029461830B8470DE000211820FFF7C6FF57
:10D220003246294610E020463A4B102200211830A1
:10D230005C33984710222046283031460546B847CF
:10D2400021462A4618312046FFF7BBFFF8BDF0B54E
:10D2500089B00E460746002401AD0DF053FAA10037
:10D26000641CE4B26850082CF7D33B46012205A9A0
:10D2700001A80096FFF7BAFF09B0F0BD70B50546EA
:10D280000E4622480CF05BFF04462048002200684E
:10D290001F4900280A7005D001220A700169C06880
:10D2A0000DF013FB002C13D0002D07D16268002A6B
:10D2B00004D0314620469047002809D0A368002BAF
:10D2C00003D0314628466269984720460DF032F86F
:10D2D00070BD30B55B1E5BB2002B04DBCC5CD55C53
:10D2E0006C40C454F6E730BD10B50F228418203CC2
:10D2F000835CE47F5B00E40923438B54521E1206D7
:10D30000120EF3D100784000087010BDB4900020D8
:10D31000DC920020190F0000F0B504468BB000200D
:10D320002646203608900F46F07CB17C884212D207
:10D33000218E0001081AA16910234218394630468F
:10D34000FFF7C7FF32462046E169FFF73AFFF07C5E
:10D35000401CF0746DE0FE2809D2FE20F0744A4BA8
:10D3600010223946304698470022E16930E0FF2814
:10D370005DD2FF20F074208E10210CF0E5FDF87BCB
:10D38000CDB2C009099069463846FFF7ADFF09984C
:10D39000002805D06946087887214840694608700A
:10D3A000002D19D1B07C002816D0374B102204A8CC
:10D3B000A169984704A910236A460846FFF789FF28
:10D3C0003246102304A91046FFF783FFE169324675
:10D3D0002046FFF7F6FE2CE06846C07B6946C70989
:10D3E0000846FFF781FF002F05D06946087887219E
:10D3F0004840694608701021491B8C4600200F21C7
:10D400004F1B04ABA84204D2A1690A5C614609180B
:10D4100007E0A84202D18022DA5503E000220F2162
:10D42000091A5A54401CC0B21028EBD3C2E701209D
:10D43000089008980BB0F0BD70B582610386044671
:10D44000C1610F33180925462035A87401200E4B01
:10D45000E8741022002128465C339847294620466C
:10D46000FFF75AFF70BDF8B51F4614460D46064635
:10D470003A4606493420069BFFF798FE23462A4683
:10D480003146FFF7D9FFF8BD190F000019D3001876
:10D49000F8B5064604462036307E0025002802D026
:10D4A00001252846F8BD2046224618301023283290
:10D4B0000746FFF70EFF012030763A462046E16826
:10D4C000FFF77FFEEDE7FFB581B016460F46054634
:10D4D0000E493C200B9B0A9AFFF768FE0446324631
:10D4E0001830102339460646FFF7F3FE1022204677
:10D4F000074B2830049998470021382001553246BF
:10D5000029462046FFF75DFE05B0F0BD91D4001816
:10D51000190F0000F3B581B00F46486801994968BA
:10D52000421A140101222409D206944203D9081A8E
:10D530000001000944420198BD688668002C02DCA5
:10D5400028D1AE4226D20069FA493018451B281E60
:10D5500004DD681E0CF00EFD201A03E00CF00AFD3D
:10D56000201A401C002801DD0020FEBD3869F14969
:10D57000281A002804DD401E0CF0FCFC201A03E0F1
:10D580000CF0F8FC201A401C002801DD0120FEBD33
:10D590000220FEBD3F69E749E819801B002805DD30
:10D5A000401E0CF0E7FC0019401C02E00CF0E2FC0D
:10D5B0000019002801DC0520FEBD0198DD49006945
:10D5C0003018401BC01B002804DD401E0CF0D2FCAC
:10D5D000201A03E00CF0CEFC201A401C002801DDCC
:10D5E0000320FEBD0420FEBDF1B584B0D2480090FA
:10D5F0000027046857E0A08A22688105890E0292FC
:10D60000820B4ED000294CD0002201921646A27DFA
:10D6100003071B0FD2180901049D1039A275890553
:10D62000890D3F22120190430143A18234E0294633
:10D630002046FFF76FFF002830D005282AD029693F
:10D64000A8684618BB4930460CF07EFC0146686865
:10D65000B84B40185943A268711A8A4200D2401C44
:10D66000060136096660A08A800B022812D3B149F0
:10D6700020690CF069FCE1680346881B0001012267
:10D680000009D206904203D9701A000100094042F5
:10D69000834206DC2E462D68002DC8D10198002853
:10D6A00017D02746029C002CA5D1009800680028BE
:10D6B0000DD0082105200007016282698A430A43D0
:10D6C000826101680122D20691431143016005B0D5
:10D6D000F0BD2246394600980CF056FD9648224689
:10D6E00031460C380CF09CFDDCE7FEB592480C3856
:10D6F0000068002826D0C27D41688768891A0E011B
:10D70000360968460DF033F8019D8A48FF3591359A
:10D71000009C854204D340422D18641C2401240936
:10D72000301B000101210009C906884203D2B4421E
:10D7300003D1AF4201D826462F46394630460DF078
:10D740003AF8FEBD0021481EF9E7F0B505467A48D3
:10D7500087B00C38059000200646019000900746DF
:10D760000290EFF31080069072B603A80CF0FFFF52
:10D77000E97D03987D22401804990001D2006D4B89
:10D78000000989185B4203E0C918401C0001000928
:10D79000684A9142F8D26A68131A1C0101232409CD
:10D7A000DB069C4204D282420DD1AA6891420AD97A
:10D7B000AA8A920B1FD06860AA688A4203D2401CD2
:10D7C000000100096860A88A800B022816D3594915
:10D7D00028690CF0B9FBEA6869680446501A000130
:10D7E00001230009DB06984203D9881A00010009C9
:10D7F0004042844202DD0120029094E04E480C3801
:10D800008468002C67D10598046864E021462846A6
:10D81000FFF780FE002860D0052839D0A97DA27DC1
:10D8200091420FD9444B0C3B9B68A3420AD0002E77
:10D8300000D126467F1CFFB2009401284DD003285A
:10D840004BD025E0AB8A9B0B17D02169A068461806
:10D85000384930460CF078FB01466068354B40187B
:10D860005943AA68711A8A4200D2401C000100097B
:10D8700000266860374600960AE09142BBD92E49DF
:10D880000C398968A142B6D1032826D00428B2D128
:10D89000A88A800B022815D3264928690CF054FB6E
:10D8A0000346E86869688446401A000101220009BD
:10D8B000D206904204D96046081A0001000940428D
:10D8C000834298DC1C480C388068A0429BD0002F13
:10D8D00000D101942468002C98D10298002822D10C
:10D8E000002E0AD01448009A0C3801990CF059FC0B
:10D8F00031461148009A0CF010FC0198002806D01F
:10D9000001460D482A460C380CF08AFC06E00A480D
:10D9100029460C380CF00CFCFFF7E7FE002E02D075
:10D920002846FFF761FE069880F31088029807B03A
:10D93000F0BD000071020000C890002070B50446E0
:10D940000026EFF3108572B600281FD011488268B8
:10D95000A24202D10021816018E0002916D100689E
:10D96000A04205D10B480CF0EAFBFFF7BEFE0DE02C
:10D97000214608480CF0EDFB002807D10548214658
:10D980000C300CF0E6FB002800D1022685F310884D
:10D99000304670BDBC900020FFB5394D0646EC7C8A
:10D9A000A87C81B0201A0007000F8C460E2801D3F6
:10D9B000012000E000200090314AA000803A811848
:10D9C00077680F64111980310B7061461150012086
:10D9D000298AA040014329822A492201B088571888
:10D9E000788070680001000DB88030892721090116
:10D9F000081AF88024493069884208D92349401818
:10DA00000CF0A2FA0121C9030143798105E0C103A9
:10DA10000120C0030818000C78810A981F211F28D4
:10DA200000D308460002B881F8891F210902884303
:10DA30000F2109020843F881039870214843FF3001
:10DA4000513080083881B07D1F211F2800D308463F
:10DA50000099C002890202220843104338809007CF
:10DA60000B4920430860E87C401C0007000FE87465
:10DA70000848018820221143018005B0F0BD000054
:10DA80005091002000800020FF7F00007102000004
:10DA90000001005000900020FFB58FB0064611989D
:10DAA0001F46304363D0012E01D1002F5FD00020EC
:10DAB0000690012E04D011988068002E02D006E056
:10DAC0007868FAE71099002901D01198C068089089
:10DAD000012E0AD01198008A0990012E07D01198C2
:10DAE000C07C002803D0012002E0B889F4E70020C0
:10DAF00000900CF031FE0001C00F0190D0480021D1
:10DB00008160D0488079002815D00198002812D172
:10DB1000CB4804680DE0A5880120294600070CF0D9
:10DB200013FA681AE188401829460CF023FAE180BC
:10DB30002468002CEFD1C34901988871012E14D0BC
:10DB400011984069019008980D90019800280ED016
:10DB50000D9800280BD0012E0CD0009800280BD077
:10DB60000125B7480468059482E03868EAE7012097
:10DB700013B0F0BDBD68F4E70025F2E7002E04D134
:10DB80001098002801D0678900E02789A0880290BA
:10DB900000286CD0002F6AD0A1890998814266D0F4
:10DBA00001990298884200D3084604900D983918CC
:10DBB0000498814201D90320DAE7E08804990CF047
:10DBC000C3F9CF1907917F1E049901980CF0BCF995
:10DBD00000294CD1049902980CF0B6F9002946D1DD
:10DBE000284604990CF0B0F90D980A910818401EC7
:10DBF00003900798814201D3B9421ED9079903982F
:10DC0000884201D3B84218D90A98884202D80398AA
:10DC1000B84212D20498874206D3014638460CF027
:10DC200093F90A98814208D20499039888421ED336
:10DC30000CF08AF90798814219D3012E04D0781C80
:10DC400004990CF081F905E07D48019D84600CE0A9
:10DC500004980918A942FBD900980D46A84303D19E
:10DC600000988143C80700D06D1C059C00E0246823
:10DC7000002C02D00198854280D30198854202D3BE
:10DC8000032006903DE0002E3BD11198856111984C
:10DC900046690898019500901198AD19008A039083
:10DCA0006D1E059C25E0A1890398814220D0A088A3
:10DCB0000290B04201D3374600E00746394630466D
:10DCC0000CF042F9002913D1394602980CF03CF9C6
:10DCD00000290DD1E08839460CF036F900E0C91969
:10DCE00001988142FBD90098081AA84200D2054643
:10DCF0002468002CD7D1314628460CF025F911981C
:10DD0000C161069834E71FB50446808800902089D9
:10DD10000190A08969468881E088002202906B46C4
:10DD200011460120FFF7B8FE032819D14448806846
:10DD3000002815D0E17B002902D1C27B002A0FD038
:10DD4000002901D0224600E00246002905D0C37B0D
:10DD5000002B02D0994200D20246908909F0CFFBF5
:10DD6000214637480CF0CEF91FBD10B501463448A6
:10DD70000CF0EFF910BDFEB50446406800906061FC
:10DD8000216800980291814242D20025ED432E463F
:10DD900000212B4809E08289238A9A4205D0491C38
:10DDA0008288C9B2B24200D2164600680028F2D179
:10DDB000002908D00098B0420FD331460CF0C4F8C7
:10DDC000704305461DE0A67C002E1AD0314600980F
:10DDD0000CF0BAF83546454313E0074600200190A1
:10DDE00009E0394630460CF0AFF8002902D1012095
:10DDF0003D460190BF1E0298B84202D80198002803
:10DE0000EFD00298A84203D80098A84200D36561D9
:10DE10000023224601211846FFF73EFE002809D0C4
:10DE2000E268A168914205D20023224619461846AD
:10DE3000FFF732FEFEBD00220346114601202BE60D
:10DE400064910020D09200201CB541480468002C49
:10DE50001ED068460CF08BFC01980099E02801D395
:10DE6000012000E00020401C08180001000900907B
:10DE700060680099401A000101210009C906884222
:10DE800001D2606801E0009860600CF083FC1CBD6A
:10DE90000020C043F9E7FEB506460025EFF31087E2
:10DEA00072B668460CF063FC019800997C2801D397
:10DEB000012000E00020401C08180001000900902B
:10DEC00070680099401A010101200909C0068142C9
:10DED00001D3009971601E490C6808E0616872689E
:10DEE000891A09010909814203D325462468002CB7
:10DEF000F4D1002D05D03246294615480CF090F992
:10DF000005E0314612480CF013F9FFF79DFF87F347
:10DF10001088FEBD70B50025EFF3108472B60C4E6C
:10DF20003168814208D130460CF009F93068002888
:10DF300009D0FFF789FF06E0014605480CF009F912
:10DF4000002800D1022584F31088284670BD000007
:10DF500070910020F8B53E483C4981800021C943BA
:10DF600001603C48384F46681DE030460CF09BFB92
:10DF70001F210D1A3748A90009188C68002C0FD0F2
:10DF800069000818008B34490BF0DEFF201A84B2B8
:10DF9000022C01D9A41EA4B2A74200D23C46A7B2CB
:10DFA0000120A8408643002EDFD1294A2A499088C3
:10DFB0004F43B84200D33846908026480068411C41
:10DFC0000AD011684B1C06D0091A0901012309095E
:10DFD000DB06994200D31060F8BD022801D11D482C
:10DFE0000160B7E710B5022802D11A49C01E0860C7
:10DFF000FFF7B0FF16480068401C01D10AF0D6FABE
:10E0000010BD30B4032801D004280BD111488C0076
:10E010002418A2604A0012181383012342688B401F
:10E020001A43426030BC95E7032801D0042809D187
:10E0300008488B0000221B189A60012342688B401D
:10E040009A43426086E70000FFFF0000E4570000AB
:10E05000D09200207891002071020000F8B50746A8
:10E06000000214460E460025C01D0CF030FA21783F
:10E0700043233F2818D01F2816D0FA49BA008A58DF
:10E08000B300D158A1420DD00121B140014201D0CD
:10E0900002250EE00125D450C9B22A46384601F0C7
:10E0A000D1FD06E0012504E00C3C2289384601F050
:10E0B000E1FD2846F8BD70B50D46044601F0DEFED0
:10E0C000C0B2294609F02EF900281AD0112809D02B
:10E0D00004DC012806D00C2814D103E0192801D053
:10E0E0001A280FD1DF4BA200995840318D79AD0627
:10E0F00008D5487DFD2420404875985880680CF06C
:10E1000098F970BD9030C2B20221204601F0C3FDE3
:10E1100070BDF7B504020546E61D30460CF0D7F990
:10E120003F2822D01F2820D01F2130460CF0A4F910
:10E13000CC4FAE00B95902988881284601F09EFE66
:10E14000C0B2019907F071FB00280DD09030C3B226
:10E1500001212846029A01F08DFDB859002803D10B
:10E16000E01D00210CF088F9FEBD43230121284663
:10E17000029A01F07FFDFEBDF8B50502ED1D0C46CB
:10E1800028460CF0A4F93F2831D020462030017AEF
:10E190002E0ACA0719D0827A304601F0E5FEB14F47
:10E1A000B5007959206948637959606A886378595C
:10E1B0001022AD4B21461430984778592146102241
:10E1C0001431A94B2430984704E000221146304610
:10E1D00001F0CAFE35020824681D0CF078F9A0434E
:10E1E0000146681D0CF048F9304605F042FBF8BDC9
:10E1F000FFB5150A16460F460A4681B0002128468B
:10E20000FFF72CFF0446012822D13978072922D0B4
:10E2100004DC032907D004291AD10BE0182928D0DF
:10E22000192915D142E0284601F028FEC0B207F0B6
:10E23000C0FB05E0284601F021FEC0B208F0A2F9BB
:10E24000002805D09030C2B20021284601F023FDFD
:10E25000204605B0F0BD01233246844804990CF0F5
:10E26000CFF80646284601F009FEC0B20BF03EFE8C
:10E2700027E0284601F002FEC0B2694609F0ECFC36
:10E2800007000ED1732002233246000104990CF0DE
:10E29000B7F86946497841706946097801700CF011
:10E2A000C8F8002F00D09037FAB2CDE76F480123AD
:10E2B0003246283004990CF0A3F80646284601F0AF
:10E2C00015FE307030460CF0B4F80022BCE770B593
:10E2D00015460C4610460CF0FAF82B0A00253F288C
:10E2E0000BD0E188062908D1000701D5022504E0FA
:10E2F0002278211D184603F015F9284670BD70B527
:10E30000154610460CF0E3F82C0A3F2812D0554869
:10E31000A1004058806800280CD00078092809D155
:10E3200045220221204601F0B6FC2A463B21204628
:10E33000FFF7EFFE002070BDFFB50546000281B07B
:10E34000C01D0CF0C4F83F2883D0464FAE00B8592A
:10E350008468002C15D02078092812D1284601F0B5
:10E360008DFDB959029A4031497DC0B2C943890730
:10E37000C917491C002A0FD0002903D0A11C09F09D
:10E3800039F866E761780022284603F025FDA11CD4
:10E390002846FFF790FE5CE7002903D0002109F032
:10E3A00029F804E061780122284603F015FD48228F
:10E3B0000221284601F06FFC4BE7FFB5160A17460D
:10E3C0000C460A4681B002213046FFF747FE05465B
:10E3D00001285ED12078092802D0172859D149E0B8
:10E3E0002389E2886188A08801F0EAFD002813D023
:10E3F0001C48B100415808464030427D920702D483
:10E40000807980061CD40498C0B2072806D0A11CCD
:10E410003046FFF750FE3CE0402236E01348C98901
:10E4200008233A46801D0BF0EBFF61880180A1882C
:10E430004180E18881802189C1800BF0FAFF28E0CA
:10E440000CF060F90106090E00D101216170A21CD7
:10E45000304603F0D8FC0548054A3946E9300CF04F
:10E460004FF816E0C0910020190F000009070000C6
:10E4700030750000304601F001FDC0B2611C09F0AA
:10E48000FEFB002805D09030C2B20221304601F0D8
:10E4900002FC2846DDE60000F7B5009816460502A6
:10E4A0000F460024681D0CF012F84322102811D0EA
:10E4B0000099BB008A00F8498958CA58B2421CD05A
:10E4C0000122BA40024201D0022408E0C88DC006F1
:10E4D00007D5432233463946009803F02FFA2046E9
:10E4E000FEBDCE500124D6B2681D0BF0F0FF3043C4
:10E4F0000146681D0BF0C0FFF1E70124EFE7FEB510
:10E50000100A0C460A4601210090FFF7C5FF029051
:10E5100001287AD12178204605260C30F602DF4DFD
:10E5200001900B000BF03AFD107109471A713A3A4D
:10E530005365685EA7D9BD71FE716088FF220146F0
:10E540001739EA32D64C914200D8A0830422022126
:10E55000009803F0E6FB0146A08B8AE06078022871
:10E5600015D0102206210832009803F0DAFBA188AA
:10E570004180E1888180C680627821460831074663
:10E58000042A06D038460830A8473946E1E002227E
:10E59000E8E73846083003F04EFEF6E70822114659
:10E5A000009803F0BEFB0146A0884880E088888080
:10E5B000BC4ACA80CDE008221021009803F0B1FBCC
:10E5C0000146A0884880E0888880CE80C1E006228D
:10E5D0000421009803F0A5FB0146A0884880E0884C
:10E5E0008880B6E00098AC49800008588068002810
:10E5F0000CD0E088002835D006220C21009803F0CA
:10E6000090FB0146E088888032E0C1E0A188E08884
:10E61000814201D94022B7E0207A102805D0042891
:10E6200003D0022801D05122AEE0022810D01022DF
:10E630000821921D009803F074FBA1884180E188B5
:10E640008180227A214609310646042A02D005E05B
:10E650000222EDE7B01D03F0EEFD01E0B01D76E013
:10E66000314676E004220A21009803F05AFB014665
:10E67000A08848806DE060780E214200921C0098CE
:10E6800003F04FFB0146002207E090000019530001
:10E690005B188088521C588092B260789042F4D8FF
:10E6A00057E026462489009803F0D5F9C01E84421D
:10E6B00000D2204687B2381D82B25221009803F062
:10E6C00030FB0446B08860803A46201D0199A84777
:10E6D000204608380BF0ADFE5AE06078002809D0DB
:10E6E000009803F0B8F92189C01E884202DBE08857
:10E6F000002820D06189208981422ED2461A0098B4
:10E7000003F0A9F9401F864200D2304687B2B81DF7
:10E7100082B21621009803F004FB0646A0887080A0
:10E72000E08800E036E061893A464018B0806189AF
:10E730000198091892E7091D8AB21221009803F086
:10E74000F0FA0646A08870802289301D0199A847FA
:10E7500086E7009805F0A5F91AE06278002A0ED045
:10E7600002221821009803F0DCFA01466089228910
:10E77000904201D1012000E000204870E9E7814289
:10E7800001D1002200E052220121009803F003F998
:10E790000298FEBD02221821009803F0C2FA014639
:10E7A0006078EAE710B51046140A0BF090FE1028C6
:10E7B00002D0204605F06CF9002010BD70B5150A96
:10E7C0000E460A4600212846FFF766FE0446012849
:10E7D00016D13148A9004058806A002806D04088E8
:10E7E000B188884202D1284604F08CF93146284687
:10E7F00004F01EFA020003D00021284603F0CBF8F3
:10E80000204670BDF8B515460C46002710460BF0A3
:10E810005EFE10286CD0280A1F4E850000907359A8
:10E820008446186A002801D0017D00E0002122788A
:10E83000402A04D0412A0ED0422A59D146E000296C
:10E8400056D0986A002802D00C380BF073FD70592E
:10E850000127846249E0122906D0182910D05229D4
:10E8600007D0D22923D104E062786188604604F0A1
:10E870003CFA705920300BF062FC0BF05BFD13E0AA
:10E880006378002B10D062881821604604F01EFACD
:10E89000009804F0FFF9ECE7E8910020190F000060
:10E8A0009891002003280000009804F0E2FF6078AF
:10E8B00000281DD17059806A002819D040886188CD
:10E8C000884215D1009804F01DF911E016290FD1E6
:10E8D0006378002B0ED06288604604F0F7F9705917
:10E8E00020300BF02CFC0BF025FD009804F0C1FF4C
:10E8F0003846F8BDA1880122D20311434182F4E7D2
:10E90000FFB581B0174610460BF0E1FD3D0A102817
:10E9100021D02A4EAC003059C08DC00606D42848FC
:10E920003A460059C18927480BF094FD305910220E
:10E93000C18D1143C185152101988901401A02D06A
:10E94000012808D102E04522012101E045220021F1
:10E95000284603F020F8002005B0F0BD70B515463C
:10E960000E4610460BF0B3FD0024102822D030785C
:10E970002D0A002804D0342812D03F2810D019E0E6
:10E980003146284604F09BFF0446FF2812D1314649
:10E99000284605F01FFD0446FF280BD1002409E09E
:10E9A000317A4A0606D43F2806D00423002228469E
:10E9B00004F08CF9204670BD0623F7E7E8910020AB
:10E9C000C09100201B050000F8B51F4614460D46F7
:10E9D00010460BF07CFD0026240A3F280DD0504A3B
:10E9E0002946A0000C3910580BF08CFB012631464B
:10E9F000204603F067F83046F8BD462239462046E7
:10EA000003F091F8F7E770B5464D6C8801F023FAF2
:10EA1000FF2808D06988491C698081004048405817
:10EA2000017B491E0173002C02D106200BF0F8FD7A
:10EA300070BDF0B587B014460E4610460BF047FD8A
:10EA40003F2840D0200A0590354980000C5800200E
:10EA50000490708869468881308833494018049052
:10EA60003779012F04D0022F2DD1059803F02FFB09
:10EA7000207C617C884205D203AA04A9059803F092
:10EA80004CFB0227A16800291DD08888274AD04264
:10EA900019D10D466846808904990C3500912346AA
:10EAA00001900E33AA1C0297291D059803F0C8FA9D
:10EAB000002802D1E189002905D10021A160287038
:10EAC00028460BF0B6FC30880BF08CFA002007B01B
:10EAD000F0BD70B514460D4610460BF0F8FC01462B
:10EAE000200A00243F2911D0EA88291D052A0DD1CA
:10EAF0002A78002A0CD0332A08D04979312A0BD041
:10EB0000002903D000231A4603F048F9204670BDBF
:10EB100003F097F90446F9E717230122F4E7000010
:10EB2000F8910020F491002000800020F9FBFFFF05
:10EB300070B505460C4606200BF0C9FC04280BD026
:10EB40000122AA40002C02D00243D1B201E090433E
:10EB5000014606200BF090FC70BD70B5524D064684
:10EB600084002859002807D00C380168491C03D1BB
:10EB70000BF0E0FB0020285100213046FFF7D8FFC2
:10EB800070BD70B5154604460622022310020BF034
:10EB900037FC047045700BF04CFC70BD70B5064638
:10EBA0000D46002406200BF092FC042812D03E4AA9
:10EBB000B1005358AB420CD00123B340034201D003
:10EBC000022407E00124555021463046FFF7B0FFEC
:10EBD00000E00124204670BD70B50A460546324962
:10EBE0008000095800290BD008460C380389DCB294
:10EBF000062C05D0072C03D008781946FFF7C1FF73
:10EC0000012D03D128480421203041712846FFF707
:10EC1000A4FF70BDF8B5244B05461E330C46981C66
:10EC200001792678C907C90F0322002E0BD18079FC
:10EC30001D4A800080188068467C828A002E02D09F
:10EC400003461633012100912946204601F07FF842
:10EC50000446FF2804D002F04DFF204602F04FFE8C
:10EC60002046F8BD10B50446FF280DD001F037F856
:10EC70000021204602F026FF0021204602F091FFED
:10EC80002046012102F0A6FE10BD0020074A0146E1
:10EC90008B00D358002B01D0401CC0B2491CC9B214
:10ECA0000329F5D37047000098910020C0910020FF
:10ECB000F8B50020009008781D460C46012807D0C2
:10ECC00003280BD040221946FFF75BFF0098F8BDE0
:10ECD0000DF028F9002229460120F5E70020FFF772
:10ECE0005DFF00900128F1D16078002507073F0FF4
:10ECF000FFF7CBFF002808D129484068002804D13D
:10ED0000032100F079F9002801D0432543E00020D9
:10ED1000002801D042253EE0608C1B38E12807D254
:10ED2000A08CFF214931884202D31E49884201D973
:10ED3000402530E0E17E1A4EC9073801490F0843EB
:10ED400020363071B8080DD0E08C01221721520214
:10ED5000904200D31046172800D2084610498883F5
:10ED600003F00AFD3079A17E8008800008433071ED
:10ED70000B480622211D0C4B1E309847201D05F024
:10ED8000E4FB20462030017A407A05F09BFBA18C01
:10ED9000608C05F0A8FB29460020FFF71DFF95E7D2
:10EDA0009891002048080000190F000070B50C462B
:10EDB00006200BF08CFB04281BD06148006800285B
:10EDC00017D00178192914D10C380189C3200025E6
:10EDD00010230622C0000BF013FB5A4B06461022EC
:10EDE0002146984730460BF024FB29460020FFF7C8
:10EDF000F3FE70BDF7B5044686B0154606200BF04D
:10EE000066FB04282BD04E4F3968002927D008789C
:10EE1000182824D1002C02D09034E1B21CE02846FE
:10EE2000484D01260C4600281BD00F460C39C12046
:10EE3000098908230622C0000BF0E2FA04460322E7
:10EE4000791CC01CA847032220460799A847A67131
:10EE500020460BF0EEFA00210020FFF7BDFE09B0BE
:10EE6000F0BD0322601C0799A847E078217980064D
:10EE7000800E0843334BE0701022002101A85C3360
:10EE800098470322611C01A8A847B8692E4B0122AC
:10EE900001A90096FEF7AAF9E1E770B50C46062035
:10EEA0000BF015FB04281AD025480068002816D05E
:10EEB00001781A2913D10C3801890025082306226C
:10EEC00022480BF09DFA1F4B064608222146984720
:10EED00030460BF0AEFA29460020FFF77DFE70BDEC
:10EEE00038B50C460020FFF759FE0546012821D110
:10EEF0002078182804D0192813D01A281AD11BE01A
:10EF00002079C02808D0002806D0402804D040210D
:10EF10000020FFF761FE0DE000210B48FEF797F996
:10EF200008E0002100912146094B01221131601CAB
:10EF3000FEF75CF9284638BD00210648EEE70000E0
:10EF400098910020190F0000F5ED00181A06000036
:10EF5000ADED00189BEE001830B504460120F84DC9
:10EF600000218A0052199268002A09D0537B022B93
:10EF700001D0012B04D1527CA24201D0002030BD2F
:10EF8000491CC9B20429ECD330BD10B5FFF77DFE92
:10EF9000EB4C002291000919896800290DD0CB7B28
:10EFA000032B0AD14B7B002B02D0022B03D004E0B1
:10EFB000097C890601D5401CC0B2521C042AE9DB39
:10EFC000032801D3012010BD002010BD70B50E46EE
:10EFD0000546002130460BF053F904000AD0D94B06
:10EFE00032460021984725730020E073D449A800D9
:10EFF00040188460204670BD30B50023D04C0AE034
:10F00000820012199268002A04D0D57B8D4201D16A
:10F01000134602E0401C0428F2DB184630BD0146CE
:10F020000120002904D1C64820300079C007C00F54
:10F03000704770B50D00044607D0007B00F074F9EE
:10F0400029460120FFF7C8FD70BDA18A03230622CF
:10F05000BD480BF0D5F9217B0170617B41700BF04D
:10F06000E8F9B74820300079C007C00F0ED0B44986
:10F0700020461630B34B06221E3106465C3B9847AD
:10F08000607B002805D0304605F03DFA0120E07392
:10F09000D6E7207B314605F082FAF7E770B50446E3
:10F0A0000D460120FFF798FD002D01D0012003E05F
:10F0B000E07B022801D10320E07370BD70B50D46DE
:10F0C0000446818AA04804230622401C0BF098F9CC
:10F0D000217B0170617B417085700BF0AAF9E07BA8
:10F0E000042819D1964900204968002900D00878E1
:10F0F000A52802D0A62805D00EE000210120FFF7A8
:10F100006BFD09E0207B0321401CC0B2FFF774FFB8
:10F110000028F2D0416888470120E07370BD10B527
:10F120008749044649680020002900D00878A728AC
:10F130000CD0A8280ED1207B0121401CC0B2FFF7C3
:10F140005BFF002802D08168884703E0002101208E
:10F15000FFF742FD207B00F0E7F810BDFFB581B05E
:10F160000D460120FFF71AFD009001287BD1297878
:10F1700000260846A43834460427714A03000AF0E2
:10F180000DFF050425313A4A5700687829460428BE
:10F1900061D2800080188768002F04D0F87B012896
:10F1A00003D0032804D0432456E00220F87305E07E
:10F1B000787B0028F7D1B87B0028F4D13A6838462C
:10F1C0009047040048D00120F87345E0687804288F
:10F1D00041D28000801880680028E4D0C17B0329D8
:10F1E000E1D105E003210020FFF706FF00281DD034
:10F1F000C77341680DE0687804282CD2800080181D
:10F200008068002812D0C17B0129CCD10521C173AF
:10F210008168884720E003210020FFF7EDFE0028E9
:10F22000C1D10121FFF7E8FE0028EFD1012613E04C
:10F2300004200024A3009B189B68002B16D0641C9C
:10F24000E4B2042CF6D3042812D0A02912D0A129AC
:10F2500016D0A2291AD040242046304303D021469C
:10F260000120FFF7B9FC009805B0F0BD2046EAE7A1
:10F270004B24F1E769782B1D049A00F0CEF803E0E7
:10F280006978049A00F088FA0446E5E76978049AF8
:10F2900000F0E5FBF8E710B502462B480C460123C9
:10F2A0000621401F0BF0ACF804700BF0C2F810BD43
:10F2B00010B5084600781946002800D09030204B41
:10F2C000C2B2586800281DD0007800281AD018460D
:10F2D000203040798000C0188068448A8C4211D167
:10F2E00000234382437B002B04D0012B05D0022B4B
:10F2F00008D105E000F0EFF804E000F077FA01E053
:10F3000000F015FC002010BD10B514460246FF2089
:10F31000002903D121461046FFF77CFC2178002903
:10F3200001D100F0C7FB10BD810010B504480C18D6
:10F33000A068002801D00AF0FDFF0020A06010BDE9
:10F3400098910020750F0000A40600001CB5027BF8
:10F350006B461A70002906D001225A704A885A80DA
:10F360000979197101E000215970E44C4482184672
:10F3700005F0E4F9014668464078084302D020468B
:10F38000FFF789FF1CBD70B5044601250878002AE7
:10F3900011D0A28B4B889A420DD1A92802D0AA285D
:10F3A00003D006E0207C042101E0207C08210843F2
:10F3B0002074002509E0A92801D0AA2805D12046FB
:10F3C00000F064F9A18B4018A083284670BD10B5E9
:10F3D0000024C477CA4A037B5371FFF7B7FF204666
:10F3E00010BD0021C177C649027B4A71017C4906E4
:10F3F00001D50021AAE7704710B50021C177C049A7
:10F40000BE4C027B4A71E41C4482007B05F0FFF98C
:10F4100001462046FFF73FFF10BDFFB50F46588855
:10F420001021084381B058801C4616460025202133
:10F430000198FFF7CBFD00282FD0002141732278DF
:10F44000827347748682C17761788177AD490160A4
:10F45000AD494160AD498160A94A01995171817BF3
:10F460000029A1781BD0890706D4017C0222114310
:10F470000174A178890703D5017C0122114301742D
:10F48000A178C90703D0017C2022114301742146D1
:10F4900000F0BCF8284605B0F0BD4B25FAE7490757
:10F4A000E3D5E6E770B50C460120FFF777FB05468C
:10F4B00001280ED160789249800020394018806878
:10F4C000002181838E4962784A7100222146FFF72C
:10F4D0005AFF284670BDF8B5C77B894D874C203D43
:10F4E000BF263B000AF05AFD0604101D1037420FDC
:10F4F000824BDB1C994200D0C277418A002902D19D
:10F50000C17FFFF796FDF8BD6968140004D10122A0
:10F51000FFF739FF0028F6D121460120FFF75CFBF9
:10F52000F8BDA14205D1C37F002B02D0017C314040
:10F5300009E0C277002A07D1704A5242D14203D172
:10F54000017C402211430174418A0029E8D1C17F26
:10F55000FFF7A4FDF8BDA14202D1017C3140017446
:10F56000418A0029F6D1FFF7A9FDF8BDFFF7D7FDC5
:10F57000F8BDF7B50E4662490546800020394018AF
:10F580008068002814D0C17B032911D1818AD5203D
:10F5900008230622C0000AF033FF05700446C67136
:10F5A00006225B4B02A9401C984720460AF041FF07
:10F5B000FEBD70B5524B8000203BC018846800250A
:10F5C000002C22D0607B00281FD1E07B03281CD1B7
:10F5D000207CBF2318402074002904D03C290FD080
:10F5E00043290ED10CE0607C00280AD0104600F0C0
:10F5F00032FCFF2805D02146163100F059FC00E00E
:10F60000452529462046FFF759FD70BDF8B50D4642
:10F610000646002120200AF033FE0446307B20708D
:10F62000A8784006400E6080286960606869A06024
:10F63000287E6070687E2077707CFFF7F0FC207376
:10F64000A878400707D5287B60730622A91D2046AD
:10F650002F4B0E3098476879A0762879E076688835
:10F66000C00501D5012000E00020244F6077FF1E77
:10F670007782204604F0BEFF050002D020460AF043
:10F6800059FE29463846FFF706FEF8BD7CB50A4606
:10F6900053880146FB2B01D8032007E0888B002804
:10F6A00006D0181A83B2FB2B04D80220DCB203E088
:10F6B000012000E00020FB240B7B6D462B7068705E
:10F6C000EC708B8B101D181801901078A9280ED0A3
:10F6D00001202A46A870094D6D1E4D82104604F087
:10F6E000CAFF01462846FFF7D6FD20467CBD002014
:10F6F0002A46A870014DAD1EEFE70000392000003A
:10F70000B8910020CFF30018E3F30018F9F30018C4
:10F71000190F00007CB50C46B1496B4649681C7056
:10F720000A795A70827B012300259B02891C012AD9
:10F7300012D0002A10D08A896B465A80C9899980D4
:10F74000A84D4582684605F02EF901460C4302D0CB
:10F750002846FFF7A0FD7CBD69464B808D80EFE712
:10F7600010B58A788273CA780024891C920603D463
:10F77000027C01231A430274994A037B203253719D
:10F78000037BD37100F0EDF8204610BD9449027B55
:10F7900020314A710021BDE770B5044690481646F5
:10F7A000203000790D46C00601D4432418E00846F5
:10F7B000FFF7D2FB002815D01C212046FFF706FCDE
:10F7C000002811D001214173457486828649016069
:10F7D000864941608649002481602146FFF729FC63
:10F7E000204670BD4024FBE74B24F9E770B57C4B05
:10F7F000C57B04242033022D06D0042D03D1DC71F7
:10F800000021FFF75BFC70BD002A04D0DC711146BB
:10F81000FFF744FC70BD734A521E914203D101218F
:10F82000FFF778FF70BD6F4A9142FBD10021EFE7EF
:10F83000F8B505466A482030C07904287AD068496E
:10F84000800040188768B87B042802D3687DC00711
:10F8500070D0687D00214006800F0091002802D002
:10F86000022803D005E00120009002E0387CC007A8
:10F8700060D06E7FB98A3346163306225D480AF09F
:10F88000BFFD0446002E0BD0A682298CAA7F2046FD
:10F890008918594B163089B2C918584B32469847C7
:10F8A000687D010747D5C00601D5032000E002208E
:10F8B0006070687DC00703D06078102108436070D5
:10F8C000687D800703D56078202108436070687DDB
:10F8D000400703D5607840210843607000980028F5
:10F8E00003D06078082108436070387B2070287F3F
:10F8F0006074E87E2074687E401CA074E87DFF2858
:10F900001CD0C007C00F20720622291D3B4BA01C33
:10F910009847687D40070AD5287E2946C007C00F52
:10F92000E07306220A312046344B093098472046BE
:10F930000AF07FFDF8BDC006C00FB9E7FF202072B6
:10F94000E7E7274910B52031C879042808D0244AB0
:10F950008000801880680422CA714521FFF7AEFB41
:10F9600010BDF8B50D460646002144200AF088FC7B
:10F97000044600274030C7708770707CFFF74FFB4C
:10F9800020706770B07B0121032801D0052800D1C9
:10F990006170707C012806D16878C00603D5607854
:10F9A000022210436070A7706878C00708D0A17069
:10F9B000A888E080E888208168784007C00F20711F
:10F9C000084F20467F1E778204F0B2FF050002D068
:10F9D00020460AF0AFFC29463846FFF75CFCF8BD2C
:10F9E000989100204220000061F700188DF7001860
:10F9F0001FF10018A706000000800020190F00006A
:10FA000070B504468878A0730026542006558A886D
:10FA10008D1C002A05D00A204243062176480AF0B0
:10FA20006FFD7648217B4171217B817129462046FB
:10FA300000F0A3F8304670BD70B5044606216E484C
:10FA40000AF0B1FD6D48217B41716D4D658205F075
:10FA5000EFF9010002D02846FFF71DFC70BDF8B594
:10FA6000074666480D460079002401090520164620
:10FA7000884301D0432417E02846FFF76DFA002899
:10FA800014D058213846FFF7A1FA002810D00221DF
:10FA90004173457486825B4901605B4941605B4903
:10FAA00081600021FFF7C5FA2046F8BD4024FBE73E
:10FAB0004B24F9E770B5514E0025B17932468900E3
:10FAC000203A89188C68FF280DD0617C002903D06A
:10FAD0002146163100F0ECF9A07B00280AD106215E
:10FAE00045480AF060FD0422012520460021B2713C
:10FAF000FFF7E4FA284670BD70B540488479042CBD
:10FB000013D03E49A00020394018856806223520D0
:10FB10000223114640010AF073FCA52101704470D4
:10FB20000AF087FC452040352875002070BDF8B5E7
:10FB30000746C17B04263048304C022907D00329F0
:10FB400010D004290DD154213846C95D11E01500AB
:10FB500003D006210AF027FDA67129463846FFF793
:10FB60009DFAF8BD1500FCD006210AF01CFD3846B0
:10FB70002946A671FFF7A2FAF8BDF8B50D4606466C
:10FB800000211E200AF07CFB0446707CFFF747FA38
:10FB90006070002020703620405D2946A07006224B
:10FBA00030311B4BE01C98476878C007C00F60726B
:10FBB0006878C0070FD0A8886081E888A081A889EC
:10FBC000E081E8892082A88AE082E88A2083288A66
:10FBD0006082688AA0820A4F20463537778205F016
:10FBE000A5F8050002D020460AF0A4FB29463846B5
:10FBF000FFF751FBF8BD0000F2060000B8910020AD
:10FC00000E20000001FA001839FA00181FF1001840
:10FC1000190F000070B50C460546012901D101F00D
:10FC2000A6FCF24EAD007059A4000059002808D07F
:10FC30000C380168491C01D10AF07CFB7159002085
:10FC4000085170BD70B50502ED1D16460C462846DC
:10FC50000AF03DFC1F280CD028460AF038FC002E84
:10FC600002D00146214301E0A043014628460AF0A4
:10FC700003FC70BD70B5164602021C460D460720F7
:10FC8000022331460002D21D0AF0BAFB057044700F
:10FC90000AF0CFFB70BD70B50D460646D349800013
:10FCA00008581346A9004258002A0CD010460C38B8
:10FCB0000489E0B2052806D0062804D0117822462F
:10FCC0003046FFF7D7FF29463046FFF7A3FF012054
:10FCD000A840C1B200223046FFF7B4FF70BDF1B5B5
:10FCE00000988600C148815900980502002920D05B
:10FCF000E81D0AF0ECFB074600241F2F04D0214624
:10FD00000098FFF787FF0AE0B848A10080594058E3
:10FD1000002804D0462221460098FFF7BCFF641C4F
:10FD2000E4B2032CE9D3B14CA0590AF003FB002044
:10FD3000A051E81D3F210AF09FFBE91DAC480AF0E5
:10FD400032FCAB48E91D801C0AF02DFCF8BDFFB564
:10FD500081B0054600242002C01D0AF0B8FB3F28F0
:10FD600003D0641CE4B2032CF5D3032C71D0002122
:10FD700058200AF085FAA6009C4F58229D4BB85196
:10FD800000219847B859C8218187B9590F204031BF
:10FD90004875200200900021C01D0AF06DFBB95982
:10FDA000029840318880B859E97B40308175B85954
:10FDB000DF21403082790A402978002900D00121D2
:10FDC00049010A4382718B4BB8590622A91C5C3B3E
:10FDD0004E309847B859697840300175854BB8590D
:10FDE00006225C3B473004999847B9590A9840313C
:10FDF0004873B959FF208881B9590398C88103987D
:10FE0000062822D001467A48009A1223F138D21DE2
:10FE10000AF0F6FA0646029830806878754BC007FB
:10FE2000C00F707230460622A91C0A305C3B98470E
:10FE3000288970806889B080A889F080A87B30729A
:10FE40002878307430460AF0F4FA204605B0F0BD48
:10FE5000FFE7FF24F9E70346644A00208100515878
:10FE6000002903D040318988994203D0401CC0B298
:10FE70000328F3D3032800D1FF20704701465E48D2
:10FE8000032906D28A0059498958002901D04031F6
:10FE90008888704701460020FF2908D08A0053490E
:10FEA0008958002903D0403188798006C00F7047F7
:10FEB00070B54E4D84004F4B285906225C3B4730AD
:10FEC0009847285901214030417370BD02460020F7
:10FED000FF2A0AD0022908D29300444AD258002AA5
:10FEE00003D0C800401A47301018704701468A00F6
:10FEF0003E4900208958002901D04031887D704753
:10FF0000024600209200394B002909D001290CD06B
:10FF1000022904D1985840308079C006C00F70473C
:10FF20009858403080794007F8E7985840308079F9
:10FF30000007F3E701460020032908D28A002B4975
:10FF40008958002903D0403188798007800F704795
:10FF500001460020FF2906D08A002449895800293B
:10FF600001D02031887F7047F0B5032827D21F4F7A
:10FF70008300FC58002C22D04034A579FB26354064
:10FF8000CE07760F3543A571FC58EF263540120198
:10FF9000154340340020A5710A0701D5032008E06D
:10FFA0004A0701D5022004E0C90701D1290700D57D
:10FFB0000120AA08F9589200024340318A7146E7AD
:10FFC00010B51924E401401EA0420AD2491EA142E4
:10FFD00007D20A480A3B834203D2FF20F430824210
:10FFE00001D9002010BD012010BD0000C0910020EB
:10FFF000F2070000750F0000FFFF0000770C000003
:020000041801E1
:10000000F7B582B016460546FFF725FF04020090BB
:10001000E01D0AF05CFA3F2823D000988700C24810
:10002000C0598189FF2900D1C189E21D0423BF483D
:100030000AF0E6F9058086700AF0FBF9BA48C05963
:100040008289FF2A08D00398002800D09030C3B2DC
:1000500001210098FFF70EFE324629460098FEF770
:1000600001FE05B0F0BDF8B516460D46FFF7F3FEEC
:1000700007460402E01D0AF02AFA3F2812D0B80011
:10008000A949009008580068002806D00278032A81
:1000900003D1002D07D09035EDB22A460021384615
:1000A000FFF7F9FDF8BD0C380189A048E21D0623D1
:1000B000001D0AF0A5F9044630782071B0886080F0
:1000C0007088208020460AF0B4F920790628E4D808
:1000D00095490098FD2208584030417D11404175F6
:1000E000DBE7F7B50C46FFF7B6FE06460502E81D4E
:1000F0000AF0EDF93F283DD08B4AB700D159086886
:10010000002832D00378042B2FD1002C0DD090344E
:1001100040318879E4B2800627D5A12C21D01CDC9F
:10012000912C1ED09C2C20D11BE00C380189E120A1
:10013000EA1D0823C0000AF063F9054602987C4BCB
:1001400001787948C0594030417508222846029903
:10015000984728460AF06DF907E0A92C01D0AA2C8F
:1001600003D1487DFD2210404875224600213046CB
:10017000FFF791FDFEBDF8B50C460546FFF76BFE97
:1001800006460702F81D0AF0A2F93F280DD066497D
:10019000B0000858FA1DC18964480423401E0AF0C3
:1001A0002FF9058084700AF044F9F8BDFFB581B0DD
:1001B0000F46FFF750FE05460602F01D0AF087F9CC
:1001C0003F281FD03C469034574A3946112F0BD058
:1001D00006DC00291DD0012906D00C2F2AD103E00E
:1001E000192901D01A2F25D1A90050584030837900
:1001F0009B061FD5437DFD242340437550588068DE
:100200000AF017F92DE7E2B202212846FFF743FD75
:1002100027E7A8001058F21DC189444806230E3074
:100220000AF0EEF803990180049941800A998180CF
:100230000AF0FFF8002FE6D10024E4E7FFB581B013
:1002400015460E46FFF707FE04460702F81D0AF0A2
:100250003EF93F2818D03548FA1DF91D0E230B3002
:100260000AF0CEF83049A2008958022340314A7D75
:100270001A434A7509210170858046800499C1801E
:100280000A9901810AF0D5F8EBE6FFB581B01C466A
:100290001546FFF7E0FD06460702F81D0AF017F9BC
:1002A0003F2811D02049B0000858FA1DC1891F48C5
:1002B000082329300AF0A4F80A998180C4800580B7
:1002C000029941800AF0B5F8CBE6FFB581B00D4642
:1002D000FFF7C1FD04460702F81D0AF0F8F83F28B1
:1002E00021D0114E002D0ED1A0003058FA1DC18929
:1002F0007320022300010AF083F8049941700399E6
:1003000001700AF096F8A0003058806800280AD0E2
:100310000078172807D1002D00D09035EAB20221CD
:100320002046FFF7B8FC9CE6C091002003070000C0
:10033000190F0000F8B51E460546F84B1746800019
:1003400018580024069A012903D11A214030144676
:100350000170012208212846FFF774FC2846FFF7A8
:100360008DFDC0B223463246394605F070FF0028A5
:1003700005D09030C2B201212846FFF78CFCF8BDB1
:1003800070B516460C460546FFF778FDC0B2002C46
:1003900008D0314605F0B0FF012208212846FFF7BA
:1003A00051FC70BD002105F0A7FF962201212846CF
:1003B000FFF771FCD94AA8001058002140300170A5
:1003C00070BDF3B581B001980F468100D348212359
:1003D00046580198F18902023569D148D21D0AF0C8
:1003E0000FF80446077002213B0009F0D7FD08050D
:1003F0003737371437100C37A87CC006C00E607032
:10040000403631702AE00198FFF7A2FD16E0132074
:100410004036307022E0687C012802D1287E012815
:100420000BD04036B079012280060028E87D0BDB36
:10043000022805D0042803D00FE0002060700DE0F2
:10044000287C02280ED108E000280BD0012809D012
:10045000042802D1287C022804D06170204609F0CB
:10046000E8FFFEBD6270F9E7F7B50F46064681006A
:10047000AA4832024558AA48E9891E23801CD21D89
:1004800009F0BEFF04460770B81EA64F030009F02E
:1004900085FD0608042E1E231C2E02980078A070ED
:1004A0000DE028694030C17BA170427CD207D20F99
:1004B000E270407CC207D20F3046FFF755FD403551
:1004C000A879BF210840A87111E01C2200E0172282
:1004D000A01C0299B8470AE01022A01C0299B84754
:1004E0001022284624300299B8470020A8632046ED
:1004F00009F09FFFFEBDF8B5884A81005558884F26
:100500002E462036F17F04028907E137002903DAFD
:10051000E11D38460AF047F8AA8F0A204243E11D40
:10052000384609F0EDFFF07F02210843F077F8BD6F
:1005300070B50546794B800019583F22525C002463
:1005400092071CD58A8F784CA24214D05204120C08
:100550008A87A2420DD38C8718582A02C189704815
:100560001E23801CD21D09F04BFF0821017009F0E9
:1005700060FF032400E001242846FFF7BCFF20466B
:1005800070BDF0B50446654BA2009A58012012696F
:10059000137DD57E2B409E46537D157F2B409C4678
:1005A000937CA500DE075D4B5B591B69DF7E1D7DDB
:1005B0003D401F7F5B7D3B401D43002E05D0537E99
:1005C000DB0702D0002D00D10020544BA4001B59A2
:1005D000ED071B6940335C7C002D07D001252C43BF
:1005E0005C74012905D0022903D007E06408640087
:1005F000F6E74032527CD20700D10020032901D017
:10060000042906D17146490703D46146490700D43D
:100610000020F0BD7FB50646404980000C58684672
:10062000007A1D4600281BD002AA03213046FFF79E
:100630001BFF002D02D03046FFF75DFF0022012195
:100640003046FFF728FB20690025002802D009F07A
:1006500071FE2561304601F0E9F8403425707FBD18
:10066000002202213046FFF7FFFEE7E770B52B4B73
:1006700082009A581469403215782E46143E330091
:1006800009F08CFC060C04090609090C162000E090
:100690001820107070BD1423137001E0142DF9D1CF
:1006A0004034237CDD0705D015201070207C4008E5
:1006B000400006E09D0706D517201070207CFD2124
:1006C00007E0207470BD5B0705D519201070207CF1
:1006D000FB210840F5E7002904D000231A46FFF764
:1006E00099FF70BD002100F0B7F870BD30B40B4B1E
:1006F00082009C5885005B5922691B6940330029A0
:1007000008D0157DD27E154014221D74403422700D
:1007100030BCABE7557D127FF5E70000C0910020AB
:1007200013070000190F0000B80B0000F8B50E46C3
:10073000FE4A8100545805022034E17FFC4FC9076E
:10074000002907D0E91D384609F02DFFE07F400859
:100750004000E0773046083809F06BFE30780B280F
:100760000AD0052808D0E91DF24A384609F0C8FE2B
:10077000E07F01210843E077F8BDF3B50646EB4979
:1007800080000D5881B02C6940352878102807D09A
:10079000112803D0122801D013280FD1102028705F
:1007A0004034207CC1070AD0C0B240084000207409
:1007B00007213046FFF705FE11202870FEBD810796
:1007C0002CD5FD2108402074DB48112287690821BF
:1007D000304601F094FA0090002F04D01022D74B3D
:1007E0003946401C984730460099FFF79FFF082282
:1007F0000921304601F083FA0746CF48CE49203020
:1008000000791E31C007C00F78700622CB4BB81C90
:10081000984739463046FFF789FF0AE041070CD573
:10082000FB21084020741320287006213046FFF772
:10083000C8FD28781028B4D0FEBD0298002804D046
:1008400001463046FFF752FFFEBD002301461A461F
:100850003046FFF7DFFEFEBD30B4B44B82009C583B
:1008600085005B5922691B694033002908D0557DFA
:10087000127F154010221D744034227030BC7CE77A
:10088000157DD27EF5E710B58100A84AA74B5158D7
:1008900080001858096900694A7C00244030012A08
:1008A00002D10A7E012A07D08A7C520706D44A7EEA
:1008B000520703D484730FE002220CE0CB7D0A7C44
:1008C000032B05D0032A03D0012B03D8012A01D81A
:1008D000002200E00122827308464030827B002A19
:1008E00006D0012A01D0022A03D10422C27300E0FB
:1008F000C4738A7CD20706D0497EC90703D0C17B66
:1009000001221143C17310BD00B5884A8000105800
:100910000029006907D0417F0B0009F03FFB060664
:10092000060806080C11817DF6E7012000BD403065
:10093000C07B400702E04030C07B0007C00F00BD15
:10094000002000BDF7B500981646850077480024C2
:100950004759224608210098FFF774F9062E0AD05D
:10096000112E0AD0222E0AD0002E0AD0903634063C
:10097000240E06D00BE0222409E0232407E02424DF
:1009800005E03846403081790822114381713E46A6
:100990004036009930780A020E2830D00F282ED029
:1009A0001A282BD1002C22D1604F01237859D21D57
:1009B000C1895F48DA3809F023FD009A0021032A33
:1009C00012D27A59002A0FD040329279530700D5BB
:1009D00001219207920F022A02D0032A04D101E0DA
:1009E000042200E00C221143017009F022FD0020D6
:1009F0003070224601210098FFF74DF9FEBD002C12
:100A000006D00023224601990098FFF703FEFEBDA1
:100A10000F2823D13869817CC9071FD0407EC007C9
:100A20001CD042481E234059D21DC1894048DE389F
:100A300009F0E6FC0446072020701C223F4BA01C56
:100A40003969984720463D4B0822002114305C3319
:100A5000984700206082204609F0EBFC01980028AE
:100A600004D001210098FFF7F7FEFEBD0021009899
:100A7000FFF73CFEFEBDF0B505462C4A800010583D
:100A800085B02E4F046903AE002918D008222146F4
:100A900001A82E31B847082221461E313046B847FA
:100AA000FF20000285430320000228180090244BF9
:100AB000012201A92046FCF799FB05B0F0BD0822F0
:100AC000214601A81E31B847082221462E31E5E70C
:100AD000F7B505468100154816464058174F8AB0AD
:100AE00010220021046902A85C37B84710220021B7
:100AF00006A8B8470B98114F002844D0012128467A
:100B0000FFF7E4F980796946087200212846FFF76B
:100B1000DDF980796946487200212846FFF7D6F949
:100B20000146062206A8B84701210BE0C09100202B
:100B3000F30700003075000098910020190F0000A5
:100B4000DF0B01182846FFF7C1F90146062207A866
:100B50000230B847012269468A7202A80330062291
:100B600021461031B84702206946487404A8023073
:100B7000062221461731B847FF2000028543002E88
:100B800019D0012018E000212846FFF79FF980794D
:100B90006946087201212846FFF798F9807969466D
:100BA000487201212846FFF791F90146062206A85E
:100BB000B8470021B9E7022000020543FE4801952D
:100BC0000090002E02D021461E3101E021462E3138
:100BD00006AB02AA2046FCF776FC0DB0F0BDF7B5D7
:100BE0000346D7B2F548B900405886B0002833D044
:100BF0004168002930D009780A292DD104464034B3
:100C0000A1798D06ED0F002B03D09033DAB20023CB
:100C10005CE00669100A0006000E1FD001282CD0E7
:100C2000022844D0032817D13846FFF791F904462B
:100C30000246E34B01A8079998471020021B01A820
:100C4000DF4B001900215C339847002D55D001AAD5
:100C500001213846FFF794FB09B0F0BD1022304661
:100C6000D74B1E3007999847A0794006F4D401224B
:100C700029463846FFF72CFFEEE74806ECD40798E4
:100C8000009011220321384601F039F8064610225F
:100C9000CB4B401C0099984731463846FFF746FD3C
:100CA000002D02D008202070D6E70720FBE7304651
:100CB000C34B10223E308A330799984700280AD048
:100CC0000421384600F0C5FD012364222946384638
:100CD000FFF7A0FCC0E7A0794006BDD40E2020702D
:100CE000002D05D031461E31384600F0BFFDB3E778
:100CF00000213846FFF7BFFEAEE70020034601465D
:100D0000009001AA3846FFF715FBA5E7F8B50D4698
:100D10000746AA4980000E584620805D00248006C0
:100D20004FD5687804280FD8E878410707D04007E6
:100D3000400F012803D0042801D0052804D1A87849
:100D4000002803D0012801D00A243AE02879C01FE6
:100D50000A2801D3062434E03846FFF7E9FB0028CF
:100D600002D003282DD12BE03069002829D19548E5
:100D700000790107890F0ED0E97809070DD44007E3
:100D80000BD463206946087003246A46214638461E
:100D9000FFF76AFB15E0052413E03902CA1D08239A
:100DA0008948C91D09F02CFB06460A20307006222E
:100DB000691C834B701C9847304609F03AFB00E0F1
:100DC00009242046F8BDF3B581B00F4601987B4950
:100DD00080000E5878780024042859D8F878410704
:100DE00007D04007400F012803D0042801D0052870
:100DF0004ED1B878002801D0012849D13879C01FD8
:100E00000A2847D235464035A879800650D428783C
:100E100001284DD1781C00F0E5FC002838D030695D
:100E20000622791C664B173098473069417E0907C6
:100E300006D5807C000703D5A87940210843A87116
:100E4000A879400603D45F480079400726D5019869
:100E500000F0DBFC00281DD03069817D0198FFF790
:100E600090FB002818D00198FFF70DFD0021019894
:100E7000FFF74AFD002811D0052028703069403066
:100E8000817B00290CD004210198FFF79AFA0FE02A
:100E90000A240DE006240BE0082409E0032407E0FF
:100EA000417C0422114341740021019800F0F1FCBF
:100EB0002046FEBDF8B50746404A80001458206918
:100EC000002819D025464035AA793D4B9206D60F09
:100ED00010223E30491C9847287807280CD1002E54
:100EE0000CD00520287020694030407C400703D595
:100EF0000021384600F0CDFC0020F8BD21693846BD
:100F00001E3100F0B3FC08202870F5E770B50646E6
:100F10002A4A800014582069002815D04034A2794C
:100F2000274B9206D50F10222E30491C9847207867
:100F3000082809D106202070A079400604D4002298
:100F400029463046FFF7C4FD002070BD08B54A7839
:100F5000511E0E2900D3082270210A4369460A70E7
:100F600016498300C9580B69002B07D04031897995
:100F700000238906C90FFFF74DFB03E06A460321F2
:100F8000FFF772FA002008BD70B504460B4A8000D6
:100F900012581346403318781D4615280AD1106997
:100FA0001022074B491C9847A8798006C10F20469C
:100FB000FFF75CFB002070BDDF0B0118C091002023
:100FC000190F0000B891002012070000F0B5054687
:100FD000FF4A8000145887B02646403630781628DD
:100FE0001ED188784A78000210436A46108204A80D
:100FF0000822F84F0230C91CB84710226846216900
:10100000B8472846FEF7A4FF6A469076072128468F
:10101000FFF72AFAB0798006C10F2846FFF726FBB2
:10102000002007B0F0BD70B50446E94A80001258B0
:101030001346403318781D4617280AD1106910222C
:10104000E44B491C9847A8798006C10F2046FFF75A
:101050000DFB0020AFE7F0B50D460646DC498000E9
:101060000C5887B0274640373878182817D1062201
:10107000D84BA91C04A89847687869468875D54B51
:1010800010226846216998476A4605213046FFF7D5
:10109000EBF9B8798006C10F3046FFF7E7FA002078
:1010A000BFE770B50546CA4A80001458403420781E
:1010B00019280AD14A1C06212846FFF7D5F9A0793C
:1010C0008006C10F2846FFF7D1FA002073E7F8B574
:1010D00006468700BE480D46C05900904878002457
:1010E000410709D04007400F012805D0042803D04C
:1010F000052801D00A242DE03046FEF7CBFE00285B
:1011000028D13046FFF714FA002823D16878000769
:101110000DD4B1480079400709D4632069460870AE
:1011200003246A4621463046FFF79EF912E00098F4
:10113000006900280ED1A6483202C0590123C18996
:10114000A648D21D09F05CF96978C906C90E01707C
:1011500009F06FF92046F8BDF3B581B00F4601984C
:101160009B4980000E583F20805D0025410701D536
:10117000452549E0800701D5692545E0384600F05E
:1011800031FB002803D0F878C01F0A2801D36A2554
:101190003AE0B878010790480029007901DA0007A1
:1011A00000E04007002801DB63252DE001215220EB
:1011B00009F066F8874B5222002104465C33306107
:1011C000984707222046834B394610309847A07C29
:1011D000C00701D12075607507220121019800F038
:1011E0008EFD0146207C4870607C8870A07CC870B1
:1011F000E07C0871207D4871607D88710198FFF75F
:1012000095FA0120403630702846FEBDF7B5944669
:101210000A4600986E4980000C580025002C35D0F5
:1012200026464036B0798006C70F206900281DD0B9
:101230004030417C4B0729D4042319434174206971
:10124000002A0DD0634B102261469847002F02D030
:10125000307805281AD10021009800F01AFB15E01B
:101260004030807B012811D1012500E0082530782D
:1012700000280BD02946009800F0EBFA2A4660209F
:101280000243012339460098FFF7C4F92846FEBD02
:10129000F3B581B00C4601984D49800008580026EE
:1012A000002838D040300178112934D18079800667
:1012B000C00F00900198FEF74BFE002102E0215480
:1012C000401CC0B21028FAD311220621019800F068
:1012D00016FD054610223F4F2146401CB8472946BF
:1012E0000198FFF723FA0B220721019800F007FD70
:1012F0000546401C218A0170090A417021460822D6
:101300001231E81CB84729460198FFF70FFA0099F7
:101310000198FFF732FA3046FEBDF3B506462C4978
:1013200080000C58002581B0002C22D0204640308F
:10133000017813291DD1807910228006C70F20461D
:10134000244B1430029998470020606311220A212F
:10135000304600F0D4FC044610221E4B401C02997B
:10136000984721463046FFF7E1F939463046FFF706
:1013700004FA2846FEBDF3B583B0039814498000F3
:1013800008580025009000286AD006464036B079FB
:101390008006C00F01900098046901982746173411
:1013A000103700285CD03078022859D104980028E2
:1013B00027D00146074B0722204698470648017967
:1013C000090703D4A178F7221140A170A17807E0A2
:1013D000C0910020190F0000B89100201B070000E9
:1013E000090706D5B978090703D5B1794022114319
:1013F000B171B1794A0606D40079400703D40325B8
:101400001FE0082520E004984078002806D178786D
:10141000012803D1480601D4022512E0039800F008
:10142000F4F9002807D0049881790398FFF7A9F808
:10143000002802D017E0062503E0B079400612D458
:101440000825307800280BD02946039800F001FACF
:101450002A4660200243012301990398FFF7DAF836
:10146000284605B0F0BD0398FFF70DFA0121039857
:10147000FFF74AFA0028C2D0A07841072DD04007D4
:10148000400F042829D020793979084020716079EB
:1014900079790840607107220221039800F02FFC3F
:1014A00001462078487060788870A078C870E0782D
:1014B000087120794871607988710398FFF736F9CF
:1014C00007203070009800694030817B002907D0E8
:1014D00004210398FEF775FFC2E700202071D9E7C9
:1014E000417C042211434174BAE770B50E46EE4BBD
:1014F00081005C580025002C12D0214640318B79A8
:101500009B060DD5002A07D01A230B700121FEF788
:1015100037FF2034A67703E000221146FEF730FFA4
:10152000284648E570B50D460646002A1ED12879A2
:10153000DE49800040188038C26F291D3046904730
:10154000040013D00146304600F083F928790128C1
:101550000CD00B280AD03046FEF79CFC01466020D8
:101560002246024301233046FFF754F823E570B5C5
:101570000646CD4980000C5800252069002802D07D
:1015800008F0D8FE2561304600F050F9403425704F
:1015900011E5FEB5140A16460D460A461F460121FE
:1015A0002046FCF75BFD019001282AD1A000BE492E
:1015B000029008584621095C2A788906C90F0A2A30
:1015C00004D00B2A26D00C2A7CD150E0002919D057
:1015D000BE421DD126460446012152206D1C08F052
:1015E0004FFE5222B24B002120619847B04B206938
:1015F00006225C3B29461030984700213046FEF712
:10160000E0FE5FE0691C2046FFF7A6FD024653E0BE
:10161000422253E02A461435002918D0BE42F7D1A1
:101620002146941CC0890A0201460A23A148D21D02
:1016300008F0E6FE0646208A30809D4B0822B01C4A
:1016400029465C3B9847304608F0F3FE3AE0518A61
:10165000961C009120462B4632460121FEF76AFE79
:1016600091490298B27E0858203082772AE00029FA
:10167000CED020306E78C07F0025410701D54525AA
:1016800019E0800701D5692515E08B4831070079FD
:10169000002901DA000700E04007002801DB63258C
:1016A00009E002220B21204600F029FB014646708A
:1016B0002046FFF73BF82A46002A03D001212046A6
:1016C000FEF7E9FA0198FEBD70B5054616460C46D0
:1016D000084608F0FCFE3F281DD0240A002E1AD030
:1016E0007148A10040584068002814D000780A28AA
:1016F00011D12E2D10D008210D46204600F0A9F85A
:101700002046FEF7C7FB60212A460A430146012313
:101710002046FEF77FFF4EE40B21EDE770B505464E
:101720001446104608F0D3FE3F281FD0240A5E4915
:10173000A00008585F49DC318D4210D14621095C78
:101740002030C27F0423520852001A43C277890610
:10175000C90F002345222046FEF75CFF06E0C821A2
:1017600081872030C17FFD221140C177002022E413
:1017700070B516460D46FEF76EFBFF281ED04A498F
:10178000820089584968002902D009780A2916D0B0
:1017900001024848CA1D1E23401FC91D08F030FE23
:1017A00004460B2020702046414B082214306582ED
:1017B00031465C3B9847204608F03BFE4AE4012155
:1017C000FFF759F946E470B50D46FEF744FB0446B1
:1017D000FF2806D0FEF75EFB01462A462046FFF7AB
:1017E000B1F837E401460A780120042A01D9002023
:1017F00070474A78002A01D0012AF8D10A79102AC4
:10180000F5D849791029F2D870470146264A89004F
:10181000525800201369D97C9B7E994200D3194607
:10182000072902D3012020329177704710B51E4A54
:10183000810054582034E17FC90709D001021D48B6
:10184000C91DDC3008F0AFFEE07F40084000E077C3
:1018500010BD70B50C4605460222052100F04FFA76
:10186000014644702846FEF761FF2FE470B50E462E
:1018700005461122042100F042FA04460C4B1022C6
:10188000401C31465C3B984721462846FEF74EFFF8
:101890001CE4FF2212029043090210B501430748DD
:1018A000FBF7D5FC10BD0000C091002014C5011845
:1018B000750F000017070000B8910020DF0B01181A
:1018C00070B584007B4E0D46012909D130598168DD
:1018D0000830002904D008F032FC08F02BFDF5E7B1
:1018E0003059AD004059002808D00C380168491C17
:1018F00001D108F01FFD31590020485170BD70B56D
:1019000004460021302008F0BBFC30226A4B05461B
:10191000002198471720A885A000664924020D5091
:10192000601D002108F0A8FD0825601D08F0CFFD0E
:1019300001462943601D08F09FFD70BDF8B51C46A7
:101940001546074600290BD1A08801F08BF8060048
:1019500006D06570A288234603213846B047F8BDFB
:101960000A2D06D16088010403D500254004400CEF
:10197000608020460C3801893A02052004230002C9
:10198000521D08F03DFD457021780170618841804D
:1019900008F04FFDF8BD70B50D460446454980007E
:1019A0000858A9004358002B03D029462046FFF7CA
:1019B000C5FF29462046FFF783FF0120A840C5B296
:1019C0002402601D08F083FDA8430146601D08F055
:1019D00053FD70BDF8B50646850036480F464059A0
:1019E000002829D00024002F05D046222146304669
:1019F000FFF7D1FF03E021463046FFF761FF641C8B
:101A0000E4B2022CEFD3304601F044F9294C60597E
:101A1000016A2030002904D008F091FB08F08AFC0C
:101A2000F5E7304601F044F9304601F06BF86059B3
:101A300008F080FC0020605134021520611D8001F7
:101A400008F0B1FD611D1D4808F0ADFD601D1021BD
:101A500008F012FDF8BD174980000858808D7047C6
:101A600070B5012217235202914200D31146172963
:101A700000D219460F4D84002A590423918510493C
:101A8000020209590D48C9893F38521D08F0B8FCB7
:101A90002959898D018029594968002902D00A787D
:101AA000012A04D00021418008F0C3FC70BD4988A0
:101AB000F9E70000E8910020750F000041050000E3
:101AC000C091002070B50124094D84402888002968
:101AD0000BD0204205D16888002802D0062008F0EB
:101AE0009FFD28882043288070BDA043FBE70000AD
:101AF000F491002010B5044600020021001D08F0FA
:101B0000BBFC0021242008F0BBFB002807D00021EB
:101B10000160416081600173017404214174994A3C
:101B2000A100505010BDF8B50646C8B2B400174623
:101B3000052814D0072811D1084608F0C8FC3F2812
:101B40000CD0914800594068002807D000780C2834
:101B500004D1002201213046FEF79DF8F8BD084669
:101B600008F0B5FC1028F9D0884D285900680028E5
:101B700007D00078122804D13A4600213046FFF7FA
:101B80000AFF295900204968002900D008780D284B
:101B900001D00E28E2D13A4601213046FFF7FBFE84
:101BA000F8BDF3B507468600764881B08459002C0D
:101BB00027D0A068002801D008F0BCFB7449207B26
:101BC0004A88101848800BE0A9887248814204D1E5
:101BD000298946223846FFF7A6FF284608F0AAFBC7
:101BE0002068002807D0204608F0A9FA0546029888
:101BF0000028F2D1E8E7634CA05908F09BFB0020D5
:101C0000A05138023F21001D08F036FCFEBDF3B59F
:101C100085B005985B4980000E58002E5FD034686F
:101C2000002C04D00698002801D0012000E00020FC
:101C3000039049E0002069468880012708F0E3F915
:101C400005468088544943185249A0884942C842F1
:101C500025D121460C31081D0290E089002800D0D2
:101C600000E0002701AA0097891C029800F09CF967
:101C70000090002803D10298008800280FD1218904
:101C8000009A0598FFF74FFF304608F058FA2046B3
:101C900008F050FB00200390009800280DD1694601
:101CA000898838030843E8800598FEF7E7F8C0B252
:101CB000294607F078FF002813D0A88808F0B8F963
:101CC0000698002802D003980028B3D13068002875
:101CD00013D00021012041400598FFF7F3FE07B023
:101CE000F0BD2B494888401E4880307B401C307333
:101CF0000698401EC0B20690E3E70121EAE770B5FE
:101D00000D46114608318BB201021446CA1D214806
:101D1000091D08F075FB0621C1808480057208301A
:101D200070BD70B50D46114609318BB201021446E3
:101D30004A1D1848091D08F063FB0421C1808480F6
:101D40000572083070BDF8B5069D1E4614460F4654
:101D5000042A13D0062C13D004212A460A3200028A
:101D600093B2021D01430B48401C08F049FB077069
:101D700000214180C48085800672F8BD0521ECE712
:101D80000721EAE7F8910020C0910020E8910020A7
:101D9000F49100200604000000800020F8B50F46F2
:101DA000540021461E460E318BB2010215460A1D13
:101DB0007A48091DA41C08F023FB0521C180211DC0
:101DC000818001210172477244818581002D00D0FC
:101DD000C68108F02EFBF8BD70B50D460102144611
:101DE000CA1D0E236D48091D08F00AFB0521C1809C
:101DF0000621818013210172457202214181848173
:101E000008F017FB70BD70B50D4601021446CA1DDF
:101E100014236248091D08F0F3FA0521C1800C2142
:101E200081801221017245720821418121888181BE
:101E30006188C181A1880182E188418208F0F9FAB4
:101E400070BD10B50A790024012A0AD0122A0CD0DC
:101E5000132A0FD0002349791A46FFF79FFF204627
:101E600010BD091D00F00AF802E0091D00F02BF872
:101E70000446F4E7091D00F062F8F9E770B58B88B5
:101E800000244C220546002B04D0012B04D0022B49
:101E900005D103E03C2202E0312200E03322404839
:101EA000AE00805900230068002800D00378092B79
:101EB00007D140784978814203D100212846FDF7B7
:101EC000EAFE204670BD70B50C4605460026FDF7BB
:101ED000E1FF012825D063892289A188E088FEF7E7
:101EE0006FF8002824D02902CA1D0E232D48C91DD1
:101EF00008F086FA0921017061784170A18841805B
:101F0000E18881802189C1806189018108F091FA8D
:101F10002348A9004058FD224030417D11404175C1
:101F20000BE0002361781A462846FFF737FF04E0EC
:101F3000617801222846FFF74FFF304670BD70B52B
:101F40000C4605460026FDF7A5FF002809D01448D9
:101F5000A90040588268002A1ED01078092807D0AE
:101F60001AE0002361781A462846FFF717FF13E0AE
:101F70006078517888420FD1A088002801D048228B
:101F800000E0002202212846FDF785FE05482902CF
:101F9000E430C91D08F007FB304670BD06040000A0
:101FA000C09100200E070000FFB583B00D46044627
:101FB00000210C980193271D8E4B0091002814D00E
:101FC00026887C207C2E00D9064628883246C119F6
:101FD00001989847059806802888801928802088CD
:101FE000801B2080009807B0F0BD6188207904290B
:101FF0000AD18149C140C90706D1012129807870E1
:102000002088401E20807F1C7C482188808B88424D
:1020100002D231200090E6E7764B04222146019857
:102020009847019826887821001D782E00D90E4601
:10203000704B3246394698470599301D0880CBE7EA
:10204000FEB51D46002301936D4B800014461B58BE
:102050000A9A081D099E0090022A21D108790122BE
:1020600022804A88042A08D1634AC240D00704D19A
:10207000022020800888401C0880587C1946401F98
:10208000C7B222880098173110185A4B3A46984721
:10209000781C2988C0B2081A28802088C01920809E
:1020A000002E12D02888B0420DD321880098514BC1
:1020B0000818324608999847208880192080288877
:1020C000801B288001E0342001900198FEBDF8B506
:1020D00006464B4980000C580025A068002806D011
:1020E000342101730C3008F0A4F9A56011E0207CC4
:1020F000617C88420DD204280BD3A28A101F0228CB
:1021000007D80095A37D34213046FFF71CFE08F068
:1021100090F9257404206074F8BDF7B582B00020F2
:1021200001900F4602983649800016460C5821E06F
:10213000904214D2121A8A4200D2114622468DB21F
:10214000123280182B4B2A4639689847207C401958
:1021500020743088401B3080386840193860207CFB
:10216000042807D1608A0C210C2800D30846617C22
:1021700040186074207C627C904202D23188002931
:10218000D6D1C0B2D1B2884230D1A68A658AA77DA5
:10219000301F02281FD81948808BA84206D3042E6E
:1021A00006D10298FFF757FCA84201D2312006E081
:1021B000002D03D0019800281AD001E034200190AE
:1021C000002000903B46324601990298FFF7BBFD84
:1021D0000C38A060E581A068002807D0019900298B
:1021E00004D00C3008F025F90020A06005B0F0BD47
:1021F0002846E6E7190F000022AA0A43989100201A
:10220000F89100203EB50546B8A107C96B4607C343
:102210001024B94B0C22694628469847002806D15D
:10222000A87B002802D1E87B002802D004242046A5
:102230003EBD0224FBE7FEB50E460546ABA207CA2B
:102240006B4607C3AC4C0C22694628468A3CA04723
:102250000422284631460C30A047FEBDF8B51E4684
:1022600015460C46B14202D10A46294612E00746FD
:10227000102C03D1FFF7C6FF04460C37102E04D1F3
:102280002846FFF7BFFF06460C35B44206D122466A
:1022900029463846984B9847002801D00020F8BDC1
:1022A0000120F8BD70B515460446102903D1FFF78B
:1022B000A9FF01460C34022907D160782178000279
:1022C0000843A84201D1012070BD002070BD10B5A7
:1022D000491EC9B200F018F910BDF7B50E46002529
:1022E00014462946009800F05FFA020069D0108970
:1022F0000099824F884206D110463946083027603F
:1023000000F0BAFA55E0081A062148438018C1893E
:102310000A308C464904890F20D101880523DB024D
:10232000CB1A032B03D929231B02994216D1744BD4
:10233000994220D100995289491C8A4219D32760B9
:102340000289801D120A3A7022685170090A917040
:102350002168C91C00F0AAFAC01C2AE06146C90B1A
:102360002DD061460905090D0818011D216040881E
:102370001FE0802526E062461205120D1018604A03
:10238000521E914217D18088002100F00DFA0028DA
:10239000EFD0276001893970090A79702168428974
:1023A0008A70120ACA7021680830091D00F064FAA8
:1023B000001D308006E0001D20600220F9E70625A0
:1023C00000E001252846FEBDFFB50F4681B0154649
:1023D00006460124002100F0E7F9002830D00189E9
:1023E0000624B1422CD0711A062251430818C28922
:1023F0000A305104890F0FD101880523DB02CB1A63
:10240000032B1DD929231B02994219D09B1C9942E9
:1024100016D05B1C994213D0D10B11D01105090DB8
:102420000C1820887E19864209D8334B60198A3BE4
:102430003A46001D049998476680002400E00D2468
:10244000204605B0F0BDF8B50E46154607460124F6
:10245000002100F0A9F900281FD00189B9421CD041
:10246000791A062251430B18D8890A334004800F89
:1024700009D118880521C902411A03290DD929213A
:102480000902884209D05E80E9041E48998801D576
:10249000014300E08143998000242046F8BDF8B54F
:1024A0000E46154607460124002100F07DF900285C
:1024B0001AD00189B94217D0791A062251430B1854
:1024C000D8890A334004800F09D118880521C90230
:1024D000411A032908D929210902884204D05888C1
:1024E000B0432843588000242046F8BDFB349B5F4E
:1024F0008000008000100000A30F0000D491002095
:10250000032800000010000070B50446F94A238833
:1025100000201268002B0AD10CE054899C4205D39C
:1025200012895918914200D3012070BD1268002A07
:10253000F3D170BD012307E016895D18B54205D3BC
:10254000538912685B1C9BB2002AF5D1238070BDB1
:10255000F8B50546CE88888868807004800F1446D8
:10256000022806D00F4601282AD00222022A29D0AA
:102570000EE00F683846FFF745FE0246102807D0E8
:102580000320400386430C37042AEFD1D0020643D0
:10259000A41AD94B394620469847601B2880F00B77
:1025A00035D03005000D411D49084900641A2080CE
:1025B00000206080601B310B09030843A88027E0DE
:1025C0000422D3E77878397800020843CB49288081
:1025D000884201D10020F1E7C849FF31884202D08A
:1025E000491C884203D1F004C00F801CE6E7C349B0
:1025F000491E884203D0292109028842CFD10220F6
:10260000A41F208060800021A180601BD6E7AE80DF
:102610002046F8BDFFB583B0002000901020019047
:10262000507A15464006800F0F46029003D00228CC
:1026300009D001280CD00226022E02D030461030DC
:102640000190002421E02868FFF7DCFD0646F3E74F
:102650000426F1E7002F07D0601CC108795C400711
:10266000400FC140C8070ED06868E100401800F074
:10267000B0F900283AD00199081880B2019000986A
:10268000401CC0B20090641CE4B2287AA042E1D899
:1026900000990398FFF738FF002828D100210198FE
:1026A00007F0EEFD044601986A7A2018019002981E
:1026B00002281ED029460698606003980088208171
:1026C000009BC0186081002022736073022E1BD013
:1026D0000198894B801B3246019098470198001B56
:1026E0000838E0810020064600902EE0402007B028
:1026F000F0BD2968102EDED09F2002400C31042E40
:10270000D9D120200243D6E748780978000208434F
:10271000E7E7002F07D0701CC108795C4007400F25
:10272000C140C8070FD06868F10041180098062220
:10273000504300191030019AFFF70AFF01900098EA
:10274000401CC0B20090761CF6B2287AB042E0D8A5
:10275000684A0021106805E023890589AB4203D34C
:10276000014600680028F7D12060002901D00C60E4
:1027700000E014600020BAE770B55E4E3468002CAB
:102780000ED0207BC00705D0002365681A460421BF
:102790001846A8472046256807F0CCFD2C00F0D14C
:1027A00000203060706070BD30B5524C024609CCDC
:1027B000083C002B13D01D89954210D858899042AF
:1027C00001D3184630BD186809E0038993420AD83E
:1027D0004389934202D3437BDB0707D0006800287C
:1027E000F3D1002030BD0029F5D1FAE7606030BD9B
:1027F00010B5404B1A6813E0548984420FD3507BC4
:10280000C407E40F8C4203D04008400008435073D3
:102810005868904201D100205860002010BD126815
:10282000002A02D014898442E6D9012010BD30B5B7
:1028300083885C04A40F0BD104880525ED02651B79
:10284000032D03D929252D02AC4201D1062030BD2C
:10285000DC0B04D01B051B0D1818008801E01805BF
:10286000000D824201D3072030BD5118814201D9A9
:102870000D2030BD002030BD10B50B46014600795B
:102880004006820FC88808D04118012A0AD018468D
:10289000194B10229847102010BD1870000A58706C
:1028A000022010BD1846FFF7C6FCF4E710B50B4632
:1028B000014680884004820F088808D04118012A08
:1028C0000AD018460C4B10229847102010BD1870E3
:1028D000000A5870022010BD1846FFF7ACFCF4E760
:1028E0001389834213D1107BC00909D00348801E8D
:1028F00008E00000CC910020190F00000328000020
:102900000520C0020870000A487002207047C01AF3
:102910000623584380180A30C8E7F0B50E46002554
:102920009C46144607462946FFF73EFF01004DD05E
:102930000889B8423FD0381A0622504340180A305E
:102940006246002A00D01060828853049B0F09D190
:1029500003880527FF02DF1B032F2CD929273F02FD
:10296000BB4228D04088002C23D00346E340DB073D
:102970001ED0097BCB0601D508251AE08B0701D4B0
:10298000D20400D50C250907890F092C09D00C2C7D
:102990000AD00D2C0AD00007800F814209D90846C1
:1029A00007E08007800FF8E70006F5E78006F3E709
:1029B000062530800BE0002C03D0092C04D006251E
:1029C00005E001204002F4E70020F2E70125284657
:1029D000F0BD70B505460188C08806244004800F0C
:1029E0001CD0012802D0022802D02CE0042009E0EB
:1029F0002868FFF707FC29684A7B0B7B1102194303
:102A000002280BD0841DE888C10B05D00005000DFD
:102A1000401D400840000419204670BD1048814206
:102A2000FAD0C01E81420ED0401C81420BD00C480F
:102A3000FF30814202D0401C814206D1A988052086
:102A400040028843E8D00024E6E70548401E814262
:102A500003D0292000028142D5D10C24DCE70000FC
:102A60000328000010B50021FFF79EFE406810BD4E
:102A7000F8B514460D4607460A4600266946204624
:102A8000FFF74BFF040006D00C2C02D0062C1CD004
:102A900036E00024012668460088002830D03846F9
:102AA000FDF748FA002822D00E2D22D00121384609
:102AB000FDF726FA002812D0002E1AD03846FDF76E
:102AC00047FA102815D20C241AE00C2D18D00D2D21
